{
  "_format": "hh-sol-artifact-1",
  "contractName": "VolunteerContract",
  "sourceName": "contracts/Volunteer.sol",
  "abi": [
    {
      "inputs": [
        {
          "internalType": "address",
          "name": "_rewardToken",
          "type": "address"
        },
        {
          "internalType": "uint256",
          "name": "_rewardRatePerHour",
          "type": "uint256"
        }
      ],
      "stateMutability": "nonpayable",
      "type": "constructor"
    },
    {
      "anonymous": false,
      "inputs": [
        {
          "indexed": false,
          "internalType": "address",
          "name": "volunteer",
          "type": "address"
        },
        {
          "indexed": false,
          "internalType": "uint256",
          "name": "_hours",
          "type": "uint256"
        }
      ],
      "name": "HoursLogged",
      "type": "event"
    },
    {
      "anonymous": false,
      "inputs": [
        {
          "indexed": false,
          "internalType": "address",
          "name": "volunteer",
          "type": "address"
        }
      ],
      "name": "Registered",
      "type": "event"
    },
    {
      "inputs": [
        {
          "internalType": "uint256",
          "name": "_hours",
          "type": "uint256"
        }
      ],
      "name": "logHours",
      "outputs": [],
      "stateMutability": "nonpayable",
      "type": "function"
    },
    {
      "inputs": [],
      "name": "owner",
      "outputs": [
        {
          "internalType": "address",
          "name": "",
          "type": "address"
        }
      ],
      "stateMutability": "view",
      "type": "function"
    },
    {
      "inputs": [],
      "name": "registerVolunteer",
      "outputs": [],
      "stateMutability": "nonpayable",
      "type": "function"
    },
    {
      "inputs": [],
      "name": "rewardRatePerHour",
      "outputs": [
        {
          "internalType": "uint256",
          "name": "",
          "type": "uint256"
        }
      ],
      "stateMutability": "view",
      "type": "function"
    },
    {
      "inputs": [],
      "name": "rewardToken",
      "outputs": [
        {
          "internalType": "contract IRewardToken",
          "name": "",
          "type": "address"
        }
      ],
      "stateMutability": "view",
      "type": "function"
    },
    {
      "inputs": [
        {
          "internalType": "uint256",
          "name": "_newRate",
          "type": "uint256"
        }
      ],
      "name": "updateRewardRate",
      "outputs": [],
      "stateMutability": "nonpayable",
      "type": "function"
    },
    {
      "inputs": [
        {
          "internalType": "address",
          "name": "",
          "type": "address"
        }
      ],
      "name": "volunteers",
      "outputs": [
        {
          "internalType": "uint256",
          "name": "totalHours",
          "type": "uint256"
        },
        {
          "internalType": "bool",
          "name": "isRegistered",
          "type": "bool"
        }
      ],
      "stateMutability": "view",
      "type": "function"
    }
  ],
  "bytecode": "0x608060405234801561001057600080fd5b50604051610ba9380380610ba98339818101604052810190610032919061015a565b336000806101000a81548173ffffffffffffffffffffffffffffffffffffffff021916908373ffffffffffffffffffffffffffffffffffffffff16021790555081600160006101000a81548173ffffffffffffffffffffffffffffffffffffffff021916908373ffffffffffffffffffffffffffffffffffffffff16021790555080600281905550505061019a565b600080fd5b600073ffffffffffffffffffffffffffffffffffffffff82169050919050565b60006100f1826100c6565b9050919050565b610101816100e6565b811461010c57600080fd5b50565b60008151905061011e816100f8565b92915050565b6000819050919050565b61013781610124565b811461014257600080fd5b50565b6000815190506101548161012e565b92915050565b60008060408385031215610171576101706100c1565b5b600061017f8582860161010f565b925050602061019085828601610145565b9150509250929050565b610a00806101a96000396000f3fe608060405234801561001057600080fd5b506004361061007d5760003560e01c80638da5cb5b1161005b5780638da5cb5b146100c65780639ef3a261146100e4578063e627989814610100578063f7c618c1146101315761007d565b8063069771e0146100825780636272ce8b1461009e57806369629025146100a8575b600080fd5b61009c600480360381019061009791906105b7565b61014f565b005b6100a6610315565b005b6100b0610463565b6040516100bd91906105f3565b60405180910390f35b6100ce610469565b6040516100db919061064f565b60405180910390f35b6100fe60048036038101906100f991906105b7565b61048d565b005b61011a60048036038101906101159190610696565b610525565b6040516101289291906106de565b60405180910390f35b610139610556565b6040516101469190610766565b60405180910390f35b600360003373ffffffffffffffffffffffffffffffffffffffff1673ffffffffffffffffffffffffffffffffffffffff16815260200190815260200160002060010160009054906101000a900460ff166101de576040517f08c379a00000000000000000000000000000000000000000000000000000000081526004016101d5906107de565b60405180910390fd5b80600360003373ffffffffffffffffffffffffffffffffffffffff1673ffffffffffffffffffffffffffffffffffffffff1681526020019081526020016000206000016000828254610230919061082d565b925050819055506000600254826102479190610861565b9050600160009054906101000a900473ffffffffffffffffffffffffffffffffffffffff1673ffffffffffffffffffffffffffffffffffffffff166321670f2233836040518363ffffffff1660e01b81526004016102a69291906108a3565b600060405180830381600087803b1580156102c057600080fd5b505af11580156102d4573d6000803e3d6000fd5b505050507f646901607266c43b4bc550561769bf2afd94dc41722832286971221c0f77bc5133836040516103099291906108a3565b60405180910390a15050565b600360003373ffffffffffffffffffffffffffffffffffffffff1673ffffffffffffffffffffffffffffffffffffffff16815260200190815260200160002060010160009054906101000a900460ff16156103a5576040517f08c379a000000000000000000000000000000000000000000000000000000000815260040161039c90610918565b60405180910390fd5b60405180604001604052806000815260200160011515815250600360003373ffffffffffffffffffffffffffffffffffffffff1673ffffffffffffffffffffffffffffffffffffffff1681526020019081526020016000206000820151816000015560208201518160010160006101000a81548160ff0219169083151502179055509050507f2d3734a8e47ac8316e500ac231c90a6e1848ca2285f40d07eaa52005e4b3a0e933604051610459919061064f565b60405180910390a1565b60025481565b60008054906101000a900473ffffffffffffffffffffffffffffffffffffffff1681565b60008054906101000a900473ffffffffffffffffffffffffffffffffffffffff1673ffffffffffffffffffffffffffffffffffffffff163373ffffffffffffffffffffffffffffffffffffffff161461051b576040517f08c379a0000000000000000000000000000000000000000000000000000000008152600401610512906109aa565b60405180910390fd5b8060028190555050565b60036020528060005260406000206000915090508060000154908060010160009054906101000a900460ff16905082565b600160009054906101000a900473ffffffffffffffffffffffffffffffffffffffff1681565b600080fd5b6000819050919050565b61059481610581565b811461059f57600080fd5b50565b6000813590506105b18161058b565b92915050565b6000602082840312156105cd576105cc61057c565b5b60006105db848285016105a2565b91505092915050565b6105ed81610581565b82525050565b600060208201905061060860008301846105e4565b92915050565b600073ffffffffffffffffffffffffffffffffffffffff82169050919050565b60006106398261060e565b9050919050565b6106498161062e565b82525050565b60006020820190506106646000830184610640565b92915050565b6106738161062e565b811461067e57600080fd5b50565b6000813590506106908161066a565b92915050565b6000602082840312156106ac576106ab61057c565b5b60006106ba84828501610681565b91505092915050565b60008115159050919050565b6106d8816106c3565b82525050565b60006040820190506106f360008301856105e4565b61070060208301846106cf565b9392505050565b6000819050919050565b600061072c6107276107228461060e565b610707565b61060e565b9050919050565b600061073e82610711565b9050919050565b600061075082610733565b9050919050565b61076081610745565b82525050565b600060208201905061077b6000830184610757565b92915050565b600082825260208201905092915050565b7f4e6f742072656769737465726564000000000000000000000000000000000000600082015250565b60006107c8600e83610781565b91506107d382610792565b602082019050919050565b600060208201905081810360008301526107f7816107bb565b9050919050565b7f4e487b7100000000000000000000000000000000000000000000000000000000600052601160045260246000fd5b600061083882610581565b915061084383610581565b925082820190508082111561085b5761085a6107fe565b5b92915050565b600061086c82610581565b915061087783610581565b925082820261088581610581565b9150828204841483151761089c5761089b6107fe565b5b5092915050565b60006040820190506108b86000830185610640565b6108c560208301846105e4565b9392505050565b7f416c726561647920726567697374657265640000000000000000000000000000600082015250565b6000610902601283610781565b915061090d826108cc565b602082019050919050565b60006020820190508181036000830152610931816108f5565b9050919050565b7f4f6e6c79206f776e65722063616e2063616c6c20746869732066756e6374696f60008201527f6e00000000000000000000000000000000000000000000000000000000000000602082015250565b6000610994602183610781565b915061099f82610938565b604082019050919050565b600060208201905081810360008301526109c381610987565b905091905056fea264697066735822122065ff85e67f4a110d10423d404c166646cf6cb394fd530ab556b364e2d45d14c864736f6c634300081b0033",
  "linkReferences": {},
  "deployedLinkReferences": {}
}